:020000040800F2
:10000000E0040020C101000837160008CD140008E4
:100010003516000825060008931A000800000000A5
:10002000000000000000000000000000D3010008F4
:100030002706000800000000D70100085916000834
:10004000DB010008DB010008DB010008DB01000820
:10005000DB010008DB010008DB010008DB01000810
:10006000DB010008DB010008DB010008DB01000800
:10007000DB010008DB010008DB010008DB010008F0
:10008000DB010008DB010008DB010008DB010008E0
:10009000DB010008DB010008DB010008DB010008D0
:1000A000DB010008DB010008DB010008DB010008C0
:1000B000511700085D170008DB010008DB0100088C
:1000C000DB010008DB010008DB010008DB010008A0
:1000D000DB010008DB010008DB010008DB01000890
:1000E000DB010008DB010008DB010008DB01000880
:1000F000DB010008DB010008DB010008DB01000870
:10010000DB010008DB010008DB010008DB0100085F
:10011000DB010008DB010008DB010008DB0100084F
:10012000DB010008DB010008DB010008DB0100083F
:10013000DB010008DB010008DB010008DB0100082F
:10014000DB010008DB010008DB010008DB0100081F
:10015000DB010008DB010008DB010008DB0100080F
:10016000DB010008DB010008DB010008DB010008FF
:10017000DB010008DB010008DB01000800000000D3
:10018000DB010008DB010008DB010008DB010008DF
:10019000DB010008DB010008DB010008DB010008CF
:1001A000DB010008DB010008DB010008DFF80CD0F0
:1001B00000F016FA00480047B51A0008E0040020D5
:1001C0000648804706480047FEE7FEE7FEE7FEE7F1
:1001D000FEE7FEE7FEE7FEE7FEE7FEE7FD160008A6
:1001E000AD0100082DE9FE4F804681EA0300C00FF3
:1001F0000C46009021F0004123F00045B8EB0200CE
:10020000A94105D24046214690461C460B4602466F
:1002100023F00040104347D0270DC7F30A00C3F373
:100220000A510290401A019040286BDAC3F3130080
:1002300040F4801B0098924620B10023D2EB030AC1
:1002400063EB0B0B01985946C0F14002504600F099
:1002500011F906460D4650465946019A00F019F923
:1002600010EB08006141002487EA115284EAE77329
:100270001A4340D0009A62B3019A012A4FEA07520A
:1002800015DC001B61EB02014FF0004202EA07524D
:10029000CDE90042001C41F5801132462B4600F0AA
:1002A00050F903B0BDE8F08F40462146F9E7001B46
:1002B00061EB0201001C41F5801300185B4120181E
:1002C000A2F5001747EB030140EAD570B6196D415E
:1002D00011E06D084FEA360645EAC0754FEA07524D
:1002E000001B61EB0201001C41F5801149084FEA37
:1002F00030000019514132462B4603B0BDE8F04FA3
:1003000000F010B90098012240000023D0EB020257
:1003100063EBE073009821464FEAE074B8EB00000D
:1003200061EB0401E9E783F000435BE781F0004102
:1003300058E72DE9FE4F81EA030404F0004421F060
:10034000004100944FF0000B23F0004350EA0104F9
:100350005ED052EA03045BD0C3F30A54C1F30A55DA
:100360002C44A4F2F3340194A0FB0254C1F3130112
:1003700041F48011C3F3130343F4801301FB0244DF
:1003800000FB034E840A970A44EA815447EA8357E4
:10039000A4FB076802958D0A05FB07854FEA932C9D
:1003A00004FB0C542705029D4FEA065847EA16370E
:1003B000B5EB08056EEB070C870E920E47EA811726
:1003C00042EA8312A7FB0201B6EB0B0164EB0004C7
:1003D0002B0D43EA0C335E1844EB1C50DA465146B1
:1003E000E7FB0201C5F313044FEA0B3343EA14534E
:1003F0004FEA0432019C43EA0603A4F10C04029480
:10040000009CCDE900B400F09CF803B0BDE8F08F8B
:1004100000200146F9E700F0004230F000400AD029
:10042000C10D01F56071C0F3160042EA0151C20826
:1004300040071143704700200146704701F0004318
:1004400030B421F0004150EA010206D00A0DA2F5B5
:100450006072C1F31301002A02DC30BC0020704737
:10046000440F44EAC104C100E01830BC00EBC250A4
:1004700000F021B8202A04DB203A00FA02F1002023
:1004800070479140C2F1200320FA03F319439040D2
:100490007047202A06DBCB17203A41FA02F043EAE4
:1004A000E07306E041FA02F3D040C2F1200291402D
:1004B0000843194670470029A8BF7047401C4900EF
:1004C00008BF20F00100704710B4B0FA80FC00FAB9
:1004D0000CF050EA010404BF10BC704749B1CCF1E4
:1004E000200421FA04F411FA0CF118BF0121214370
:1004F0000843A3EB0C01CB1D4FEA00614FEA10202B
:1005000042BF002010BC704700EBC35010440029CC
:10051000A4BF10BC7047401C490008BF20F0010078
:1005200010BC704710B5141E73F1000408DA401CAB
:1005300041F1000192185B411A4301D120F0010002
:1005400010BD2DE9F04D92469B4611B1B1FA81F2F2
:1005500002E0B0FA80F220329046FFF78BFF0446AB
:100560000F4640EA0A0041EA0B0153465A46084347
:1005700013D0114653EA010019D0C8F14002504689
:1005800000F040F805460E46504659464246FFF7F1
:1005900071FF084305D0012004E020463946BDE83C
:1005A000F08D0020054346EAE0762C4337430A9855
:1005B0006305E40AA0EB08000022FD0A44EA475460
:1005C0000A3002D500200146E9E70105101969410A
:1005D000DDE9084500196941BDE8F04DA2E70000DA
:1005E000064C074D06E0E06840F0010394E8070080
:1005F00098471034AC42F6D3FFF7DCFD881B0008A7
:10060000A81B0008202A04DB203A21FA02F000216E
:10061000704721FA02F3D040C2F120029140084312
:1006200019467047FEE7FEE731B500F0F9F80446D9
:1006300000F0F6F80099001B8842F9D338BD00009D
:100640002DE9F84FDFF890B100224FF001084FF08C
:10065000030A4FF00F090BF1040E00BF0B6808FAF4
:1006600002F42340A3426ED14D68022D01D0122D19
:100670000ED1D50800EB850CDCF820505607F70E9C
:1006800009FA07F6B5430E69BE402E43CCF8206048
:10069000066855000F790AFA05FC07F0030726EAF9
:1006A0000C06AF40374307604E68012E05D0022E7E
:1006B00003D0112E01D0122E0ED18768CE6827EA02
:1006C0000C07AE403E4386604668A6430C79C4F3EF
:1006D0000014944034434460C4688E6824EA0C04D7
:1006E000AE402643C6604C68E4006FD53B4C25689D
:1006F00045F480452560246822F0030504F4804415
:100700000094374C2E19D6F8084895072F0F09FA90
:1007100007F5AC43334DA84201D100252EE0324D00
:10072000A84201D1012529E0304DA84201D102257E
:1007300024E02F4DA84201D103251FE02D4DA842F2
:1007400002D104251AE041E02B4DA84201D1052534
:1007500014E02A4DA84201D106250FE0284DA842F9
:1007600001D107250AE0274DA84201D1082505E05F
:10077000254DA84201D1092500E00A25BD402543A9
:10078000C6F80858DBF800405D464E689C43F60307
:1007900000D51C432C60DEF8004075464E689C4333
:1007A000B60300D51C432C600B4D08352C684E68F1
:1007B0009C43F60200D51C432C60074D0C352C6879
:1007C0004E689C43B60200D51C432C60521C102A74
:1007D000FFF444AFBDE8F88F003C014044380240CC
:1007E00000300140000002400004024000080240C6
:1007F000000C0240001002400014024000180240A9
:10080000001C0240002002400024024042694A408D
:10081000426170470AB1816170470904FBE700003B
:100820000148006870470000280000200248016865
:10083000491C016070470000280000200B4810B5DB
:10084000016841F400710160016841F48061016058
:10085000016841F480710160032000F067F8002016
:1008600000F006F800F015F8002010BD003C024032
:1008700010B5044600F00CF94FF47A71B0FBF1F0BA
:1008800000F0D7FA00222146501E00F02FF8002079
:1008900010BD10B5032000F049F8002211466FF09A
:1008A0000B0000F023F8002211466FF00A0000F060
:1008B0001DF8002211466FF0090000F017F8002221
:1008C0001146101F00F012F80022BDE8104011463A
:1008D000501E00F00BB800F01F02012191404009AA
:1008E000800000F1E020C0F800117047F0B40E4B1A
:1008F0001B680C46C3F30223C3F10705042D00D97E
:100900000425191D072901D2002300E0DB1E012662
:1009100006FA05F1491E214099409E40761E164078
:100920003143F0BC00F088BE0CED00E0064900F059
:10093000070208684FF6FF03184040EA0220034A06
:1009400010430860704700000CED00E00000FA055D
:100950002DE9F047DFF830A105460F46DAF8000030
:1009600000F00F01F8B28146B94208D201468AF878
:100970000010DAF8000000F00F00B8426AD12878C1
:10098000424C800705D52068A96820F0F000084394
:1009900020602878C0074FD03C4968680839012892
:1009A00019D002281AD0032818D00968890700290D
:1009B00050DA216821F0030101432160FFF730FF85
:1009C0000646686841F28838012810D002281AD0FB
:1009D00003281ED02CE009688903E8E7096889012B
:1009E000E5E700BFFFF71CFF811B41451DD82068CC
:1009F000C0F381000128F5D11EE000BFFFF710FF12
:100A0000811B414511D82068C0F381000228F5D12F
:100A100012E02068FFF704FF801B4045F9D904E08D
:100A2000FFF7FEFE811B414502D90320BDE8F08798
:100A3000206810F00C0FF3D1DAF80010504601F0E6
:100A40000F01B94208D980F80090006800F00F004B
:100A5000B84201D00120E9E72878400705D5206891
:100A6000E96820F4E050084320602878000706D5A4
:100A70002068296920F4604040EAC100206000201D
:100A8000FFF7F6FE0020D1E7003C024008380240A4
:100A900010B500F017F808490968F02292FAA2F29E
:100AA00001F0F001B2FA82F2D140044A515CC84030
:100AB0000349086010BD000008380240781B000898
:100AC0000000002030B51948006810F00C011848EB
:100AD00012D0441004290ED008290DD11349091F42
:100AE0000A6802F03F030A68550247F6C07204D54F
:100AF000B4FBF3F003E0204630BDB0FBF3F00B682D
:100B00000968134092FAA2F2B2FA82F2D340584333
:100B10004FF4403292FAA2F201F44031B2FA82F27A
:100B2000D140491C4900B0FBF1F030BD083802400B
:100B30000024F4002DE9F84F0446DFF8CC82007859
:100B4000A8F1040BC007ABF1040537D0D8F80010AA
:100B50004046C1F38101012908D00068C0F381003B
:100B600002280AD1DBF80000400206D5286880037D
:100B700024D56068002878D020E0A3492079891F17
:100B80000870606868B1FFF74BFE064605E000BFDD
:100B9000FFF746FE801B642868D828688003F7D5D5
:100BA0000CE0FFF73DFE064605E000BFFFF738FE0C
:100BB000801B6428F0D828688003F7D42078934EEF
:100BC00080074FF0010A4FF0000742D5D8F8001017
:100BD000404611F00C0F08D00068C0F381000228D5
:100BE0000AD1DBF80000400206D42868800714D53B
:100BF000E068012839D110E0E068D8B1C6F800A05B
:100C0000FFF70EFE814605E0FFF70AFEA0EB0900A4
:100C10000228C1D828688007F6D52868F82292FAF9
:100C2000A2F22169B2FA82F220F0F8009140084362
:100C300028600EE03760FFF7F3FD814606E000BF55
:100C4000FFF7EEFDA0EB090002280FD82868800707
:100C5000F6D42078000728D56D486169A1B1C0F8A5
:100C600000A0FFF7DDFD814608E0CAE079E000BFA3
:100C7000FFF7D6FDA0EB0900022872D862486C305D
:100C800000688007F4D510E00760FFF7C9FD8146D2
:100C900006E000BFFFF7C4FDA0EB0900022860D802
:100CA00059486C3000688007F4D42078400749D553
:100CB00055483830016841F080510160006800F00B
:100CC000805000905348016841F480710160FFF743
:100CD000A7FD814606E000BFFFF7A2FDA0EB0900DB
:100CE00002283ED84B480068C005F5D5DFF81891BA
:100CF000207A09F1680989F80000A06888B1FFF737
:100D00008FFD009008E000BFFFF78AFD0099411AAF
:100D100041F2883081426CD8D9F800008007F3D5C1
:100D200010E0FFF77DFD009008E000BFFFF778FDC1
:100D30000099411A41F2883081425AD8D9F800000E
:100D40008007F3D4A069E0B3D8F80010C1F38101A3
:100D5000022956D00228376604D0FFF761FD044609
:100D60004AE046E0FFF75CFD074604E0FFF758FD68
:100D7000C01B02283DD828688001F7D4D4E90701B8
:100D8000084347F6C07292FAA2F2616AB2FA82F29E
:100D90009140A26A4FF0FF3303EB52024FF440330D
:100DA00093FAA3F3B3FA83F39A40114308434FF045
:100DB000706292FAA2F2E16AB2FA82F291400843BA
:100DC00000E01CE0CBF80000C6F860A0FFF728FDAB
:100DD000044604E0FFF724FD001B022809D8286818
:100DE0008001F7D50BE000BFFFF71AFD001B0228BA
:100DF00002D90320BDE8F88F28688001F4D40020D0
:100E0000F8E70120F6E700000838024000004742FA
:100E1000800E4742007000404FF0E021042808692E
:100E200003D020F004000861704740F00400FAE7A6
:100E3000704710B5401EB0F1807F01D3012010BD76
:100E40004FF0E02460610F21601700F0F5FB0020F7
:100E5000A06107202061002010BD10B5FFF7E8FF5A
:100E600010BD7047704730B590F83820012A20D067
:100E7000012280F83820022380F8393003685C684A
:100E800024F070045C6003685C680D682C435C604F
:100E900003689C6824F080049C6003689C6849682F
:100EA0000C439C6080F83920002180F838100846F7
:100EB00030BD022030BD10B5040003D094F83900D5
:100EC00010B107E0012010BD002084F83800204652
:100ED00000F00CF8022084F83900211D206800F091
:100EE00043FC012084F83900002010BD00B50168E2
:100EF0000022204887B0B1F1804F15D01E4A9142A0
:100F00002CD1016841F0020101600068002200F06C
:100F10000200059011461D20FFF7E8FC5FF01D0060
:100F2000FFF7D9FC07B000BD016841F00101016085
:100F30000068022100F00100059001208DE8070003
:100F40000321CDE9031069460C48FFF779FB002225
:100F500011461C20FFF7CAFC1C20E1E7084A914219
:100F6000E0D1016841F004010160006800F0040074
:100F70000590D7E7403802400004004000000240DE
:100F8000000800400168CA6842F00102CA600068B7
:100F9000016841F0010101600020704770B504460E
:100FA00090F83800012817D0012584F83850022025
:100FB00084F839002068826822F0770222F47F42A8
:100FC00082600868502837D00DDC202859D005DC15
:100FD00088B3102841D151E0022070BD302853D091
:100FE00040283AD13FE060282ED070280BD0B0F5D1
:100FF000805F03D0B0F5005F2FD110E020688168DA
:1010000021F0070115E0CB68D1E90121206800F04B
:1010100016FC2168886840F0770088601DE0CB6886
:10102000D1E90121206800F00AFC2068816841F4C0
:101030008041816011E01EE0CA684968206800F0C4
:1010400005FD5021206806E0CA684968206800F064
:101050000EFD6021206800F0FCFB84F83950002070
:1010600084F8380070BDCA684968206800F0EEFC5A
:1010700040212068EFE700212068ECE7102120687C
:10108000E9E720212068E6E730212068E3E77047A0
:1010900070B50446006801694FF00005C94389072F
:1010A00015D4C168C943890711D4E91E0161012023
:1010B0002076206880698007204602D0FFF7E7FF8E
:1010C00004E000F0B3F8204600F035F925762068FA
:1010D0000169C943490717D4C168C943490713D4F3
:1010E0006FF004010161022020762068806910F40D
:1010F000407F204602D0FFF7CAFF04E000F096F8D8
:10110000204600F018F9257620680169C9430907CF
:1011100016D4C168C943090712D46FF008010161F0
:10112000042020762068C0698007204602D0FFF79F
:10113000AEFF04E000F07AF8204600F0FCF82576D7
:1011400020680169C943C90617D4C168C943C906E3
:1011500013D46FF010010161082020762068C06967
:1011600010F4407F204602D0FFF791FF04E000F02A
:101170005DF8204600F0DFF8257620680169C94354
:10118000C90708D1C168C943C90704D1891E0161D3
:10119000204600F0EDF820680169C943090609D42A
:1011A000C168C943090605D46FF08001016120467A
:1011B000FFF757FE20680169C943490609D4C16891
:1011C000C943490605D46FF040010161204600F093
:1011D0007CF920680169C94389060BD4C168C943F9
:1011E000890607D46FF0200101612046BDE87040F8
:1011F000FFF738BE70BD000000B50068094985B032
:1012000088420DD14FF44040009002200021CDE9EA
:1012100001010321CDE9031069460348FFF710FAE5
:1012200005B000BD00080040000C0240704770B5DA
:10123000044690F838000D4601280DD0012684F8A8
:101240003860022084F8390042B1042A18D0082AF4
:101250002AD00C2A4DD139E0022070BD206800F060
:1012600001FB2068816941F0080181612068816982
:1012700021F004018161206881692A69114311E02C
:10128000206800F01BFB2068816941F400618161E6
:101290002068816921F480618161206881692A69FF
:1012A00041EA0221816124E0206800F039FB2068D6
:1012B000C16941F00801C1612068C16921F00401E0
:1012C000C1612068C1692A69114311E0206800F0FA
:1012D00057FB2068C16941F40061C1612068C169A0
:1012E00021F48061C1612068C1692A6941EA022153
:1012F000C16184F83960002084F8380070BD10B5F1
:10130000040003D094F8390010B107E0012010BDAB
:10131000002084F83800204600F00CF8022084F801
:101320003900211D206800F01FFA012084F83900DF
:10133000002010BD7047704710B5044600680122B8
:1013400000F072FA08492068884202D007498842B2
:1013500003D1416C41F4004141642068016841F0CF
:1013600001010160002010BD0000014000040140A7
:1013700070B53D4905462DED068B006809683B4C6C
:10138000884265D14FF400513948FFF73FFA94ED98
:10139000010ADFED380AB2EE041A20EE200AC0EE90
:1013A000010AC4ED060A618800EE101AB8EE400A80
:1013B00084ED050A00EE101AB8EE400A30EEC08A3D
:1013C00084ED078A18EE100AFFF725F89FED2A1B17
:1013D00053EC112BFEF7ADFF41EC190BA068FFF7A2
:1013E0001AF853EC192BFEF7FDFEFFF727F894EDE2
:1013F000030A064670EE088AC4ED038A94ED080AD3
:1014000038EE400A84ED040A10EE100AFFF703F8E4
:1014100041EC190B18EE900AFEF7FDFF9FED181B2B
:1014200053EC112BFEF785FF41EC1A0B3046FEF70B
:10143000F2FF53EC1A2BFEF7D5FE53EC192BFEF7F7
:10144000D1FEFEF7FBFFA06084ED088A00206080DB
:10145000054928683C390968884202D16088401CE7
:101460006080BDEC068B70BD680000200400002089
:101470000018024000002842333333333333F33F44
:10148000FCA9F1D24D62603F70B5044690F8380077
:10149000012818D0012584F83850022084F839003A
:1014A000204600F095FA2068C16821F04001C16033
:1014B0002068C16821F48041C16084F8395000205F
:1014C00084F8380070BD022070BD7047FEE7000050
:1014D0002DE9F041274886B00024016841F08001E1
:1014E0000160016801F080010591016841F001018E
:1014F0000160016801F001010591016841F00801F6
:101500000160016801F008010591016841F04001A6
:1015100001600068DFF8608000F040004FF4005781
:101520000590002239464046FFF774F97D000022FD
:1015300029464046FFF76EF90095032601250396DC
:10154000CDE9015469464046FFF77AF800970396C3
:10155000CDE9015469464046FFF772F80022114672
:101560000620FFF7C3F90620FFF7B5F906B0BDE87E
:10157000F0810000303802400018024010B51048D9
:1015800088B04FF080410024C0E900141021C0E968
:1015900002410461FFF78FFC072000905020CDE945
:1015A00001040F20049069460548FFF76DFF05947C
:1015B00005A903480694FFF756FC08B010BD0000CB
:1015C0002C00002010B51A488EB01849016041F275
:1015D00068010024C0E901144FF4C871C0E9031484
:1015E000FFF769FC4FF48050079007A91048FFF7F8
:1015F000D5FC0F48FFF783FE0B940BA90C480C9405
:10160000FFF731FC6020CDE900040294082269460E
:1016100007480494FFF70BFE0C2269460448FFF7C5
:1016200006FE0348FFF7E8FD0EB010BD00080040BD
:10163000A4000020FEE770470907090E002806DA1B
:1016400000F00F0000F1E02080F8141D704700F159
:10165000E02080F80014704710B5FFF7E7F8BDE808
:101660001040FFF7FABB000030B5224893B00025C8
:10167000016841F080510160006800F080501190D5
:101680001D48016841F4404101600068022400F4F3
:10169000404011900120009001908005CDE9064066
:1016A000082008904FF4A870CDE9090404200B909D
:1016B0006846FFF73FFA0CA90F2081E831004FF48C
:1016C000A0500F90109005210CA8FFF741F9FFF7EB
:1016D000DFF94FF47A71B0FBF1F0FFF7AAFB0420B9
:1016E000FFF79AFB00221146501EFFF7FFF813B0D8
:1016F00030BD0000403802400070004010480168D2
:1017000041F4700101600F48016841F0010101607E
:101710000C4A00210832116002680B4B1A4002602B
:10172000031D0A4A1A60026822F4802202600548FA
:101730000C3001600249580680390860704700008B
:1017400088ED00E000380240FFFFF6FE1030002474
:101750000148FFF79DBC00002C0000200148FFF766
:1017600097BC000068000020F0B50268234B244DB0
:10177000244E254F254C4FF0804C984209D06045AF
:1017800007D0A84205D0B04203D0B84201D0A04251
:1017900004D122F0700E4A6842EA0E0298421BD031
:1017A000604519D0A84217D0B04215D0B84213D026
:1017B000A04211D0164DA8420ED0164DA8420BD013
:1017C000154DA84208D0154DA84205D0144DA84289
:1017D00002D0144DA84203D122F44075CA682A43AE
:1017E00002608A68C2620A688262984201D0A0429E
:1017F00001D10969016301214161F0BD000001408F
:101800000004004000080040000C004000040140BB
:1018100000400140004401400048014000180040E1
:10182000001C00400020004010B50123046A8B40DA
:101830009C430462036A8A401343036210BD10B5DF
:10184000846842EA032224F47F440A4322438260EC
:1018500010BD826822F070020A4342F007018160E5
:101860007047000030B5026A22F001020262026A8B
:10187000436884690D6824F07304254322F0020450
:101880008A6822430B4CA04202D00B4CA0420BD1E1
:1018900022F00804CA6823F4407322434C6922F002
:1018A00004021C438B69234343608561496841639B
:1018B000026230BD000001400004014030B5026A00
:1018C00022F010020262026A436884690D6824F4FF
:1018D000E64444EA05248D6822F0200242EA05121B
:1018E0000D4DA84202D00D4DA8420ED1CD6822F078
:1018F000800242EA05124D6923F4406343EA8503FE
:101900008D6922F0400243EA85034360846149689F
:101910008163026230BD000000000140000401400C
:1019200030B5026A22F480720262036A4268C469B6
:1019300023F4007324F073050C682C438D6843EA8C
:1019400005230D4DA84202D00C4DA8420ED1CD6802
:1019500023F4006343EA05234D6922F4405242EA2E
:1019600005128D6923F4806342EA05124260C46166
:101970004968C163036230BD0000014000040140BA
:1019800030B5026A22F480520262046A4268C36976
:101990000D6823F4E64343EA05238D6824F40054DC
:1019A00044EA0534084DA84202D0084DA84204D1AB
:1019B0004D6922F4804242EA85124260C36149685F
:1019C0000164046230BD00000000014000040140D9
:1019D00030B403689A6822F070044A68224322F007
:1019E00007040A6822439A604A6812F00F0F1FD159
:1019F0001211082A1CD2DFE802F01B1B1B1B0B1D57
:101A000023040B69D1E90221006830BCFFF717BF3E
:101A10000268136A146A24F001041462026894696B
:101A2000096924F0F00444EA01119161006803623D
:101A300030BC70470A698968006830BC00F006B89D
:101A40000A698968006830BC00F011B810B5036AF3
:101A5000046A24F001040462846924F0F00444EA76
:101A6000021423F00A020A438461026210BD10B519
:101A7000036A23F0100303628369046A23F470434A
:101A800043EA023224F0A00343EA011182610162B9
:101A900010BDFEE702E008C8121F08C1002AFAD1F3
:101AA00070477047002001E001C1121F002AFBD1DE
:101AB000704700002DED028B86B0FEF7BFFEFFF7EA
:101AC000D3FDFFF705FDFFF759FDFFF77BFD264826
:101AD0002449002401604AF21041C0E90114C721E1
:101AE000C0E90314FFF7E7F94FF48050009069460E
:101AF0001D48FFF753FA049404A91B480594FFF707
:101B0000B2F91948FFF73EFA17483C38FFF73AFA9E
:101B1000154808213C30FFF70FFC13480C213C30DE
:101B2000FFF70AFC104E114F3C3E114C9FED118AFD
:101B300006F17805D4ED020A2968BCEEE00A10EE41
:101B4000100AC86310EE100A08643068406A2080EA
:101B500010EE900AB84201DB84ED028A6420FEF7A1
:101B600063FDE7E700040040680000200000AF4389
:101B70000400002000000000000000000102030437
:101B80000102030406070809A81B00080000002042
:101B90002C000000941A0008D41B00082C00002020
:101BA000B4040000A41A00080024F400000000009F
:101BB0000000803F00000000000000000000000066
:101BC0000000000000000000000000000000000015
:041BD0000000000011
:04000005080001AD41
:00000001FF
